{
  "_format": "hh3-artifact-1",
  "contractName": "AttestationGate",
  "sourceName": "contracts/gates/AttestationGate.sol",
  "abi": [
    {
      "inputs": [
        {
          "internalType": "address",
          "name": "_easAddress",
          "type": "address"
        }
      ],
      "stateMutability": "nonpayable",
      "type": "constructor"
    },
    {
      "inputs": [
        {
          "internalType": "address",
          "name": "owner",
          "type": "address"
        }
      ],
      "name": "OwnableInvalidOwner",
      "type": "error"
    },
    {
      "inputs": [
        {
          "internalType": "address",
          "name": "account",
          "type": "address"
        }
      ],
      "name": "OwnableUnauthorizedAccount",
      "type": "error"
    },
    {
      "anonymous": false,
      "inputs": [
        {
          "indexed": true,
          "internalType": "address",
          "name": "user",
          "type": "address"
        },
        {
          "indexed": true,
          "internalType": "bytes32",
          "name": "attestationUID",
          "type": "bytes32"
        },
        {
          "indexed": true,
          "internalType": "bytes32",
          "name": "schema",
          "type": "bytes32"
        }
      ],
      "name": "AttestationRegistered",
      "type": "event"
    },
    {
      "anonymous": false,
      "inputs": [
        {
          "indexed": true,
          "internalType": "address",
          "name": "user",
          "type": "address"
        },
        {
          "indexed": true,
          "internalType": "bytes32",
          "name": "attestationUID",
          "type": "bytes32"
        }
      ],
      "name": "AttestationRemoved",
      "type": "event"
    },
    {
      "anonymous": false,
      "inputs": [
        {
          "indexed": true,
          "internalType": "address",
          "name": "previousOwner",
          "type": "address"
        },
        {
          "indexed": true,
          "internalType": "address",
          "name": "newOwner",
          "type": "address"
        }
      ],
      "name": "OwnershipTransferred",
      "type": "event"
    },
    {
      "inputs": [
        {
          "internalType": "address",
          "name": "",
          "type": "address"
        }
      ],
      "name": "authorizedAttesters",
      "outputs": [
        {
          "internalType": "bool",
          "name": "",
          "type": "bool"
        }
      ],
      "stateMutability": "view",
      "type": "function"
    },
    {
      "inputs": [],
      "name": "eas",
      "outputs": [
        {
          "internalType": "contract IEAS",
          "name": "",
          "type": "address"
        }
      ],
      "stateMutability": "view",
      "type": "function"
    },
    {
      "inputs": [],
      "name": "easAddress",
      "outputs": [
        {
          "internalType": "address",
          "name": "",
          "type": "address"
        }
      ],
      "stateMutability": "view",
      "type": "function"
    },
    {
      "inputs": [
        {
          "internalType": "address",
          "name": "user",
          "type": "address"
        }
      ],
      "name": "getUserAttestationUID",
      "outputs": [
        {
          "internalType": "bytes32",
          "name": "uid",
          "type": "bytes32"
        }
      ],
      "stateMutability": "view",
      "type": "function"
    },
    {
      "inputs": [
        {
          "internalType": "address",
          "name": "user",
          "type": "address"
        }
      ],
      "name": "hasValidAttestation",
      "outputs": [
        {
          "internalType": "bool",
          "name": "valid",
          "type": "bool"
        }
      ],
      "stateMutability": "view",
      "type": "function"
    },
    {
      "inputs": [
        {
          "internalType": "address",
          "name": "user",
          "type": "address"
        },
        {
          "internalType": "bytes32",
          "name": "schemaUID",
          "type": "bytes32"
        }
      ],
      "name": "hasValidAttestationOfSchema",
      "outputs": [
        {
          "internalType": "bool",
          "name": "valid",
          "type": "bool"
        }
      ],
      "stateMutability": "view",
      "type": "function"
    },
    {
      "inputs": [],
      "name": "owner",
      "outputs": [
        {
          "internalType": "address",
          "name": "",
          "type": "address"
        }
      ],
      "stateMutability": "view",
      "type": "function"
    },
    {
      "inputs": [
        {
          "internalType": "address",
          "name": "user",
          "type": "address"
        },
        {
          "internalType": "bytes32",
          "name": "attestationUID",
          "type": "bytes32"
        },
        {
          "internalType": "bytes32",
          "name": "schemaUID",
          "type": "bytes32"
        }
      ],
      "name": "registerAttestation",
      "outputs": [],
      "stateMutability": "nonpayable",
      "type": "function"
    },
    {
      "inputs": [
        {
          "internalType": "address",
          "name": "user",
          "type": "address"
        }
      ],
      "name": "removeAttestation",
      "outputs": [],
      "stateMutability": "nonpayable",
      "type": "function"
    },
    {
      "inputs": [],
      "name": "renounceOwnership",
      "outputs": [],
      "stateMutability": "nonpayable",
      "type": "function"
    },
    {
      "inputs": [
        {
          "internalType": "address",
          "name": "attester",
          "type": "address"
        },
        {
          "internalType": "bool",
          "name": "authorized",
          "type": "bool"
        }
      ],
      "name": "setAuthorizedAttester",
      "outputs": [],
      "stateMutability": "nonpayable",
      "type": "function"
    },
    {
      "inputs": [
        {
          "internalType": "address",
          "name": "newOwner",
          "type": "address"
        }
      ],
      "name": "transferOwnership",
      "outputs": [],
      "stateMutability": "nonpayable",
      "type": "function"
    },
    {
      "inputs": [
        {
          "internalType": "address",
          "name": "",
          "type": "address"
        }
      ],
      "name": "userAttestations",
      "outputs": [
        {
          "internalType": "bytes32",
          "name": "",
          "type": "bytes32"
        }
      ],
      "stateMutability": "view",
      "type": "function"
    },
    {
      "inputs": [
        {
          "internalType": "address",
          "name": "",
          "type": "address"
        },
        {
          "internalType": "bytes32",
          "name": "",
          "type": "bytes32"
        }
      ],
      "name": "userSchemaAttestations",
      "outputs": [
        {
          "internalType": "bytes32",
          "name": "",
          "type": "bytes32"
        }
      ],
      "stateMutability": "view",
      "type": "function"
    }
  ],
  "bytecode": "0x608060405234801561000f575f5ffd5b50604051610f63380380610f6383398101604081905261002e9161013e565b338061005457604051631e4fbdf760e01b81525f60048201526024015b60405180910390fd5b61005d816100ef565b506001600160a01b0381166100c05760405162461bcd60e51b8152602060048201526024808201527f4174746573746174696f6e476174653a20696e76616c696420454153206164646044820152637265737360e01b606482015260840161004b565b600280546001600160a01b039092166001600160a01b031992831681179091556001805490921617905561016b565b5f80546001600160a01b038381166001600160a01b0319831681178455604051919092169283917f8be0079c531659141344cd1fd0a4f28419497f9722a3daafe3b4186f6b6457e09190a35050565b5f6020828403121561014e575f5ffd5b81516001600160a01b0381168114610164575f5ffd5b9392505050565b610deb806101785f395ff3fe608060405234801561000f575f5ffd5b50600436106100e5575f3560e01c80638150864d11610088578063d1b0a19e11610063578063d1b0a19e146101f7578063d379677314610219578063f2fde38b14610243578063f94e55e414610256575f5ffd5b80638150864d146101a95780638b1c96b7146101d45780638da5cb5b146101e7575f5ffd5b806338ca2069116100c357806338ca20691461016657806349fa991f1461017b5780636aae21db1461018e578063715018a6146101a1575f5ffd5b8063024f2c39146100e9578063163d4ad51461011b57806329c9d82f1461013e575b5f5ffd5b6101086100f7366004610b10565b60036020525f908152604090205481565b6040519081526020015b60405180910390f35b61012e610129366004610b2b565b610269565b6040519015158152602001610112565b61010861014c366004610b10565b6001600160a01b03165f9081526003602052604090205490565b610179610174366004610b55565b6102ad565b005b610179610189366004610b10565b6106ab565b61012e61019c366004610b10565b61088e565b6101796108c3565b6001546101bc906001600160a01b031681565b6040516001600160a01b039091168152602001610112565b6101796101e2366004610b94565b6108d6565b5f546001600160a01b03166101bc565b61012e610205366004610b10565b60056020525f908152604090205460ff1681565b610108610227366004610b2b565b600460209081525f928352604080842090915290825290205481565b610179610251366004610b10565b610968565b6002546101bc906001600160a01b031681565b6001600160a01b0382165f9081526004602090815260408083208484529091528120548061029a575f9150506102a7565b6102a3816109a5565b9150505b92915050565b6001600160a01b0383166103085760405162461bcd60e51b815260206004820152601d60248201527f4174746573746174696f6e476174653a20696e76616c6964207573657200000060448201526064015b60405180910390fd5b816103555760405162461bcd60e51b815260206004820152601c60248201527f4174746573746174696f6e476174653a20696e76616c6964205549440000000060448201526064016102ff565b6001546040516328c44a9960e21b8152600481018490525f916001600160a01b03169063a3112a64906024015f60405180830381865afa15801561039b573d5f5f3e3d5ffd5b505050506040513d5f823e601f3d908101601f191682016040526103c29190810190610cc2565b80519091506104275760405162461bcd60e51b815260206004820152602b60248201527f4174746573746174696f6e476174653a206174746573746174696f6e20646f6560448201526a1cc81b9bdd08195e1a5cdd60aa1b60648201526084016102ff565b60e08101516001600160a01b03165f9081526005602052604090205460ff166104a15760405162461bcd60e51b815260206004820152602660248201527f4174746573746174696f6e476174653a20756e617574686f72697a65642061746044820152653a32b9ba32b960d11b60648201526084016102ff565b836001600160a01b03168160c001516001600160a01b0316146105125760405162461bcd60e51b815260206004820152602360248201527f4174746573746174696f6e476174653a20726563697069656e74206d69736d616044820152620e8c6d60eb1b60648201526084016102ff565b818160200151146105655760405162461bcd60e51b815260206004820181905260248201527f4174746573746174696f6e476174653a20736368656d61206d69736d6174636860448201526064016102ff565b60808101516001600160401b0316156105cc5760405162461bcd60e51b8152602060048201526024808201527f4174746573746174696f6e476174653a206174746573746174696f6e207265766044820152631bdad95960e21b60648201526084016102ff565b60608101516001600160401b031615806105f257504281606001516001600160401b0316115b61064a5760405162461bcd60e51b8152602060048201526024808201527f4174746573746174696f6e476174653a206174746573746174696f6e206578706044820152631a5c995960e21b60648201526084016102ff565b6001600160a01b0384165f81815260036020908152604080832087905560048252808320868452909152808220869055518492869290917fcccd260f4f14953f8eae8dff2070c1d21f3c8acb475956b18e3dcd6b242a543c9190a450505050565b6001600160a01b0381165f908152600360205260409020548061071e5760405162461bcd60e51b815260206004820152602560248201527f4174746573746174696f6e476174653a206e6f206174746573746174696f6e20604482015264199bdd5b9960da1b60648201526084016102ff565b6001546040516328c44a9960e21b8152600481018390525f916001600160a01b03169063a3112a64906024015f60405180830381865afa158015610764573d5f5f3e3d5ffd5b505050506040513d5f823e601f3d908101601f1916820160405261078b9190810190610cc2565b90505f81608001516001600160401b03165f1415806107ce575060608201516001600160401b0316158015906107ce57504282606001516001600160401b031611155b90508061082e5760405162461bcd60e51b815260206004820152602860248201527f4174746573746174696f6e476174653a206174746573746174696f6e207374696044820152671b1b081d985b1a5960c21b60648201526084016102ff565b6001600160a01b0384165f81815260036020908152604080832083905560048252808320868301518452909152808220829055518592917f811517ebf8042199d675cf77c12a5f59f747237cf5eb642ab8b7719021c29bbb91a350505050565b6001600160a01b0381165f90815260036020526040812054806108b357505f92915050565b6108bc816109a5565b9392505050565b6108cb610a81565b6108d45f610aad565b565b6108de610a81565b6001600160a01b03821661093e5760405162461bcd60e51b815260206004820152602160248201527f4174746573746174696f6e476174653a20696e76616c696420617474657374656044820152603960f91b60648201526084016102ff565b6001600160a01b03919091165f908152600560205260409020805460ff1916911515919091179055565b610970610a81565b6001600160a01b03811661099957604051631e4fbdf760e01b81525f60048201526024016102ff565b6109a281610aad565b50565b6001546040516328c44a9960e21b8152600481018390525f9182916001600160a01b039091169063a3112a64906024015f60405180830381865afa1580156109ef573d5f5f3e3d5ffd5b505050506040513d5f823e601f3d908101601f19168201604052610a169190810190610cc2565b8051909150610a2757505f92915050565b60808101516001600160401b031615610a4257505f92915050565b60608101516001600160401b031615801590610a6b57504281606001516001600160401b031611155b15610a7857505f92915050565b50600192915050565b5f546001600160a01b031633146108d45760405163118cdaa760e01b81523360048201526024016102ff565b5f80546001600160a01b038381166001600160a01b0319831681178455604051919092169283917f8be0079c531659141344cd1fd0a4f28419497f9722a3daafe3b4186f6b6457e09190a35050565b6001600160a01b03811681146109a2575f5ffd5b5f60208284031215610b20575f5ffd5b81356108bc81610afc565b5f5f60408385031215610b3c575f5ffd5b8235610b4781610afc565b946020939093013593505050565b5f5f5f60608486031215610b67575f5ffd5b8335610b7281610afc565b95602085013595506040909401359392505050565b80151581146109a2575f5ffd5b5f5f60408385031215610ba5575f5ffd5b8235610bb081610afc565b91506020830135610bc081610b87565b809150509250929050565b634e487b7160e01b5f52604160045260245ffd5b60405161014081016001600160401b0381118282101715610c0257610c02610bcb565b60405290565b80516001600160401b0381168114610c1e575f5ffd5b919050565b8051610c1e81610afc565b8051610c1e81610b87565b5f82601f830112610c48575f5ffd5b81516001600160401b03811115610c6157610c61610bcb565b604051601f8201601f19908116603f011681016001600160401b0381118282101715610c8f57610c8f610bcb565b604052818152838201602001851015610ca6575f5ffd5b8160208501602083015e5f918101602001919091529392505050565b5f60208284031215610cd2575f5ffd5b81516001600160401b03811115610ce7575f5ffd5b82016101408185031215610cf9575f5ffd5b610d01610bdf565b8151815260208083015190820152610d1b60408301610c08565b6040820152610d2c60608301610c08565b6060820152610d3d60808301610c08565b608082015260a08281015190820152610d5860c08301610c23565b60c0820152610d6960e08301610c23565b60e0820152610d7b6101008301610c2e565b6101008201526101208201516001600160401b03811115610d9a575f5ffd5b610da686828501610c39565b6101208301525094935050505056fea2646970667358221220d064c210f49ee04cd941bb919e03fe465e8aeb09915a10925434a2f85053241864736f6c634300081c0033",
  "linkReferences": {},
  "deployedLinkReferences": {},
  "immutableReferences": {},
  "inputSourceName": "project/contracts/gates/AttestationGate.sol",
  "buildInfoId": "solc-0_8_28-bcca0a39c811bfeeb92560bf480bdb6e30475c59"
}