{
  "_format": "hh3-artifact-1",
  "contractName": "AttestationGate",
  "sourceName": "contracts/gates/AttestationGate.sol",
  "abi": [
    {
      "inputs": [
        {
          "internalType": "address",
          "name": "_easAddress",
          "type": "address"
        }
      ],
      "stateMutability": "nonpayable",
      "type": "constructor"
    },
    {
      "inputs": [
        {
          "internalType": "address",
          "name": "owner",
          "type": "address"
        }
      ],
      "name": "OwnableInvalidOwner",
      "type": "error"
    },
    {
      "inputs": [
        {
          "internalType": "address",
          "name": "account",
          "type": "address"
        }
      ],
      "name": "OwnableUnauthorizedAccount",
      "type": "error"
    },
    {
      "anonymous": false,
      "inputs": [
        {
          "indexed": true,
          "internalType": "address",
          "name": "user",
          "type": "address"
        },
        {
          "indexed": true,
          "internalType": "bytes32",
          "name": "attestationUID",
          "type": "bytes32"
        },
        {
          "indexed": true,
          "internalType": "bytes32",
          "name": "schema",
          "type": "bytes32"
        }
      ],
      "name": "AttestationRegistered",
      "type": "event"
    },
    {
      "anonymous": false,
      "inputs": [
        {
          "indexed": true,
          "internalType": "address",
          "name": "user",
          "type": "address"
        },
        {
          "indexed": true,
          "internalType": "bytes32",
          "name": "attestationUID",
          "type": "bytes32"
        }
      ],
      "name": "AttestationRemoved",
      "type": "event"
    },
    {
      "anonymous": false,
      "inputs": [
        {
          "indexed": true,
          "internalType": "address",
          "name": "previousOwner",
          "type": "address"
        },
        {
          "indexed": true,
          "internalType": "address",
          "name": "newOwner",
          "type": "address"
        }
      ],
      "name": "OwnershipTransferred",
      "type": "event"
    },
    {
      "inputs": [],
      "name": "eas",
      "outputs": [
        {
          "internalType": "contract IEAS",
          "name": "",
          "type": "address"
        }
      ],
      "stateMutability": "view",
      "type": "function"
    },
    {
      "inputs": [],
      "name": "easAddress",
      "outputs": [
        {
          "internalType": "address",
          "name": "",
          "type": "address"
        }
      ],
      "stateMutability": "view",
      "type": "function"
    },
    {
      "inputs": [
        {
          "internalType": "address",
          "name": "user",
          "type": "address"
        }
      ],
      "name": "getUserAttestationUID",
      "outputs": [
        {
          "internalType": "bytes32",
          "name": "uid",
          "type": "bytes32"
        }
      ],
      "stateMutability": "view",
      "type": "function"
    },
    {
      "inputs": [
        {
          "internalType": "address",
          "name": "user",
          "type": "address"
        }
      ],
      "name": "hasValidAttestation",
      "outputs": [
        {
          "internalType": "bool",
          "name": "valid",
          "type": "bool"
        }
      ],
      "stateMutability": "view",
      "type": "function"
    },
    {
      "inputs": [
        {
          "internalType": "address",
          "name": "user",
          "type": "address"
        },
        {
          "internalType": "bytes32",
          "name": "schemaUID",
          "type": "bytes32"
        }
      ],
      "name": "hasValidAttestationOfSchema",
      "outputs": [
        {
          "internalType": "bool",
          "name": "valid",
          "type": "bool"
        }
      ],
      "stateMutability": "view",
      "type": "function"
    },
    {
      "inputs": [],
      "name": "owner",
      "outputs": [
        {
          "internalType": "address",
          "name": "",
          "type": "address"
        }
      ],
      "stateMutability": "view",
      "type": "function"
    },
    {
      "inputs": [
        {
          "internalType": "address",
          "name": "user",
          "type": "address"
        },
        {
          "internalType": "bytes32",
          "name": "attestationUID",
          "type": "bytes32"
        },
        {
          "internalType": "bytes32",
          "name": "schemaUID",
          "type": "bytes32"
        }
      ],
      "name": "registerAttestation",
      "outputs": [],
      "stateMutability": "nonpayable",
      "type": "function"
    },
    {
      "inputs": [
        {
          "internalType": "address",
          "name": "user",
          "type": "address"
        }
      ],
      "name": "removeAttestation",
      "outputs": [],
      "stateMutability": "nonpayable",
      "type": "function"
    },
    {
      "inputs": [],
      "name": "renounceOwnership",
      "outputs": [],
      "stateMutability": "nonpayable",
      "type": "function"
    },
    {
      "inputs": [
        {
          "internalType": "address",
          "name": "newOwner",
          "type": "address"
        }
      ],
      "name": "transferOwnership",
      "outputs": [],
      "stateMutability": "nonpayable",
      "type": "function"
    },
    {
      "inputs": [
        {
          "internalType": "address",
          "name": "",
          "type": "address"
        }
      ],
      "name": "userAttestations",
      "outputs": [
        {
          "internalType": "bytes32",
          "name": "",
          "type": "bytes32"
        }
      ],
      "stateMutability": "view",
      "type": "function"
    },
    {
      "inputs": [
        {
          "internalType": "address",
          "name": "",
          "type": "address"
        },
        {
          "internalType": "bytes32",
          "name": "",
          "type": "bytes32"
        }
      ],
      "name": "userSchemaAttestations",
      "outputs": [
        {
          "internalType": "bytes32",
          "name": "",
          "type": "bytes32"
        }
      ],
      "stateMutability": "view",
      "type": "function"
    }
  ],
  "bytecode": "0x608060405234801561000f575f5ffd5b50604051610dae380380610dae83398101604081905261002e9161013e565b338061005457604051631e4fbdf760e01b81525f60048201526024015b60405180910390fd5b61005d816100ef565b506001600160a01b0381166100c05760405162461bcd60e51b8152602060048201526024808201527f4174746573746174696f6e476174653a20696e76616c696420454153206164646044820152637265737360e01b606482015260840161004b565b600280546001600160a01b039092166001600160a01b031992831681179091556001805490921617905561016b565b5f80546001600160a01b038381166001600160a01b0319831681178455604051919092169283917f8be0079c531659141344cd1fd0a4f28419497f9722a3daafe3b4186f6b6457e09190a35050565b5f6020828403121561014e575f5ffd5b81516001600160a01b0381168114610164575f5ffd5b9392505050565b610c36806101785f395ff3fe608060405234801561000f575f5ffd5b50600436106100b1575f3560e01c8063715018a61161006e578063715018a61461016d5780638150864d146101755780638da5cb5b146101a0578063d3796773146101b0578063f2fde38b146101da578063f94e55e4146101ed575f5ffd5b8063024f2c39146100b5578063163d4ad5146100e757806329c9d82f1461010a57806338ca20691461013257806349fa991f146101475780636aae21db1461015a575b5f5ffd5b6100d46100c336600461099b565b60036020525f908152604090205481565b6040519081526020015b60405180910390f35b6100fa6100f53660046109b6565b610200565b60405190151581526020016100de565b6100d461011836600461099b565b6001600160a01b03165f9081526003602052604090205490565b6101456101403660046109e0565b610244565b005b61014561015536600461099b565b6105c8565b6100fa61016836600461099b565b6107ab565b6101456107e0565b600154610188906001600160a01b031681565b6040516001600160a01b0390911681526020016100de565b5f546001600160a01b0316610188565b6100d46101be3660046109b6565b600460209081525f928352604080842090915290825290205481565b6101456101e836600461099b565b6107f3565b600254610188906001600160a01b031681565b6001600160a01b0382165f90815260046020908152604080832084845290915281205480610231575f91505061023e565b61023a81610830565b9150505b92915050565b6001600160a01b03831661029f5760405162461bcd60e51b815260206004820152601d60248201527f4174746573746174696f6e476174653a20696e76616c6964207573657200000060448201526064015b60405180910390fd5b816102ec5760405162461bcd60e51b815260206004820152601c60248201527f4174746573746174696f6e476174653a20696e76616c696420554944000000006044820152606401610296565b6001546040516328c44a9960e21b8152600481018490525f916001600160a01b03169063a3112a64906024015f60405180830381865afa158015610332573d5f5f3e3d5ffd5b505050506040513d5f823e601f3d908101601f191682016040526103599190810190610b0d565b80519091506103be5760405162461bcd60e51b815260206004820152602b60248201527f4174746573746174696f6e476174653a206174746573746174696f6e20646f6560448201526a1cc81b9bdd08195e1a5cdd60aa1b6064820152608401610296565b836001600160a01b03168160c001516001600160a01b03161461042f5760405162461bcd60e51b815260206004820152602360248201527f4174746573746174696f6e476174653a20726563697069656e74206d69736d616044820152620e8c6d60eb1b6064820152608401610296565b818160200151146104825760405162461bcd60e51b815260206004820181905260248201527f4174746573746174696f6e476174653a20736368656d61206d69736d617463686044820152606401610296565b60808101516001600160401b0316156104e95760405162461bcd60e51b8152602060048201526024808201527f4174746573746174696f6e476174653a206174746573746174696f6e207265766044820152631bdad95960e21b6064820152608401610296565b60608101516001600160401b0316158061050f57504281606001516001600160401b0316115b6105675760405162461bcd60e51b8152602060048201526024808201527f4174746573746174696f6e476174653a206174746573746174696f6e206578706044820152631a5c995960e21b6064820152608401610296565b6001600160a01b0384165f81815260036020908152604080832087905560048252808320868452909152808220869055518492869290917fcccd260f4f14953f8eae8dff2070c1d21f3c8acb475956b18e3dcd6b242a543c9190a450505050565b6001600160a01b0381165f908152600360205260409020548061063b5760405162461bcd60e51b815260206004820152602560248201527f4174746573746174696f6e476174653a206e6f206174746573746174696f6e20604482015264199bdd5b9960da1b6064820152608401610296565b6001546040516328c44a9960e21b8152600481018390525f916001600160a01b03169063a3112a64906024015f60405180830381865afa158015610681573d5f5f3e3d5ffd5b505050506040513d5f823e601f3d908101601f191682016040526106a89190810190610b0d565b90505f81608001516001600160401b03165f1415806106eb575060608201516001600160401b0316158015906106eb57504282606001516001600160401b031611155b90508061074b5760405162461bcd60e51b815260206004820152602860248201527f4174746573746174696f6e476174653a206174746573746174696f6e207374696044820152671b1b081d985b1a5960c21b6064820152608401610296565b6001600160a01b0384165f81815260036020908152604080832083905560048252808320868301518452909152808220829055518592917f811517ebf8042199d675cf77c12a5f59f747237cf5eb642ab8b7719021c29bbb91a350505050565b6001600160a01b0381165f90815260036020526040812054806107d057505f92915050565b6107d981610830565b9392505050565b6107e861090c565b6107f15f610938565b565b6107fb61090c565b6001600160a01b03811661082457604051631e4fbdf760e01b81525f6004820152602401610296565b61082d81610938565b50565b6001546040516328c44a9960e21b8152600481018390525f9182916001600160a01b039091169063a3112a64906024015f60405180830381865afa15801561087a573d5f5f3e3d5ffd5b505050506040513d5f823e601f3d908101601f191682016040526108a19190810190610b0d565b80519091506108b257505f92915050565b60808101516001600160401b0316156108cd57505f92915050565b60608101516001600160401b0316158015906108f657504281606001516001600160401b031611155b1561090357505f92915050565b50600192915050565b5f546001600160a01b031633146107f15760405163118cdaa760e01b8152336004820152602401610296565b5f80546001600160a01b038381166001600160a01b0319831681178455604051919092169283917f8be0079c531659141344cd1fd0a4f28419497f9722a3daafe3b4186f6b6457e09190a35050565b6001600160a01b038116811461082d575f5ffd5b5f602082840312156109ab575f5ffd5b81356107d981610987565b5f5f604083850312156109c7575f5ffd5b82356109d281610987565b946020939093013593505050565b5f5f5f606084860312156109f2575f5ffd5b83356109fd81610987565b95602085013595506040909401359392505050565b634e487b7160e01b5f52604160045260245ffd5b60405161014081016001600160401b0381118282101715610a4957610a49610a12565b60405290565b80516001600160401b0381168114610a65575f5ffd5b919050565b8051610a6581610987565b80518015158114610a65575f5ffd5b5f82601f830112610a93575f5ffd5b81516001600160401b03811115610aac57610aac610a12565b604051601f8201601f19908116603f011681016001600160401b0381118282101715610ada57610ada610a12565b604052818152838201602001851015610af1575f5ffd5b8160208501602083015e5f918101602001919091529392505050565b5f60208284031215610b1d575f5ffd5b81516001600160401b03811115610b32575f5ffd5b82016101408185031215610b44575f5ffd5b610b4c610a26565b8151815260208083015190820152610b6660408301610a4f565b6040820152610b7760608301610a4f565b6060820152610b8860808301610a4f565b608082015260a08281015190820152610ba360c08301610a6a565b60c0820152610bb460e08301610a6a565b60e0820152610bc66101008301610a75565b6101008201526101208201516001600160401b03811115610be5575f5ffd5b610bf186828501610a84565b6101208301525094935050505056fea26469706673582212208deed5af86f30a530f26ef9686abad2ca41f9ee2cb6d1279204f432cbb6857a964736f6c634300081c0033",
  "linkReferences": {},
  "deployedLinkReferences": {},
  "immutableReferences": {},
  "inputSourceName": "project/contracts/gates/AttestationGate.sol",
  "buildInfoId": "solc-0_8_28-6a362f843592e40f65fa1838b0c94a170896ca19"
}