{
  "_format": "hh3-artifact-1",
  "contractName": "GatedNFTMinter",
  "sourceName": "contracts/gates/GatedNFTMinter.sol",
  "abi": [
    {
      "inputs": [
        {
          "internalType": "address",
          "name": "_attestationGate",
          "type": "address"
        },
        {
          "internalType": "bytes32",
          "name": "_requiredSchemaUID",
          "type": "bytes32"
        },
        {
          "internalType": "uint256",
          "name": "_maxSupply",
          "type": "uint256"
        },
        {
          "internalType": "uint256",
          "name": "_mintPrice",
          "type": "uint256"
        },
        {
          "internalType": "string",
          "name": "name",
          "type": "string"
        },
        {
          "internalType": "string",
          "name": "symbol",
          "type": "string"
        }
      ],
      "stateMutability": "nonpayable",
      "type": "constructor"
    },
    {
      "inputs": [
        {
          "internalType": "address",
          "name": "sender",
          "type": "address"
        },
        {
          "internalType": "uint256",
          "name": "tokenId",
          "type": "uint256"
        },
        {
          "internalType": "address",
          "name": "owner",
          "type": "address"
        }
      ],
      "name": "ERC721IncorrectOwner",
      "type": "error"
    },
    {
      "inputs": [
        {
          "internalType": "address",
          "name": "operator",
          "type": "address"
        },
        {
          "internalType": "uint256",
          "name": "tokenId",
          "type": "uint256"
        }
      ],
      "name": "ERC721InsufficientApproval",
      "type": "error"
    },
    {
      "inputs": [
        {
          "internalType": "address",
          "name": "approver",
          "type": "address"
        }
      ],
      "name": "ERC721InvalidApprover",
      "type": "error"
    },
    {
      "inputs": [
        {
          "internalType": "address",
          "name": "operator",
          "type": "address"
        }
      ],
      "name": "ERC721InvalidOperator",
      "type": "error"
    },
    {
      "inputs": [
        {
          "internalType": "address",
          "name": "owner",
          "type": "address"
        }
      ],
      "name": "ERC721InvalidOwner",
      "type": "error"
    },
    {
      "inputs": [
        {
          "internalType": "address",
          "name": "receiver",
          "type": "address"
        }
      ],
      "name": "ERC721InvalidReceiver",
      "type": "error"
    },
    {
      "inputs": [
        {
          "internalType": "address",
          "name": "sender",
          "type": "address"
        }
      ],
      "name": "ERC721InvalidSender",
      "type": "error"
    },
    {
      "inputs": [
        {
          "internalType": "uint256",
          "name": "tokenId",
          "type": "uint256"
        }
      ],
      "name": "ERC721NonexistentToken",
      "type": "error"
    },
    {
      "inputs": [
        {
          "internalType": "address",
          "name": "owner",
          "type": "address"
        }
      ],
      "name": "OwnableInvalidOwner",
      "type": "error"
    },
    {
      "inputs": [
        {
          "internalType": "address",
          "name": "account",
          "type": "address"
        }
      ],
      "name": "OwnableUnauthorizedAccount",
      "type": "error"
    },
    {
      "inputs": [],
      "name": "ReentrancyGuardReentrantCall",
      "type": "error"
    },
    {
      "anonymous": false,
      "inputs": [
        {
          "indexed": true,
          "internalType": "address",
          "name": "owner",
          "type": "address"
        },
        {
          "indexed": true,
          "internalType": "address",
          "name": "approved",
          "type": "address"
        },
        {
          "indexed": true,
          "internalType": "uint256",
          "name": "tokenId",
          "type": "uint256"
        }
      ],
      "name": "Approval",
      "type": "event"
    },
    {
      "anonymous": false,
      "inputs": [
        {
          "indexed": true,
          "internalType": "address",
          "name": "owner",
          "type": "address"
        },
        {
          "indexed": true,
          "internalType": "address",
          "name": "operator",
          "type": "address"
        },
        {
          "indexed": false,
          "internalType": "bool",
          "name": "approved",
          "type": "bool"
        }
      ],
      "name": "ApprovalForAll",
      "type": "event"
    },
    {
      "anonymous": false,
      "inputs": [
        {
          "indexed": false,
          "internalType": "uint256",
          "name": "_fromTokenId",
          "type": "uint256"
        },
        {
          "indexed": false,
          "internalType": "uint256",
          "name": "_toTokenId",
          "type": "uint256"
        }
      ],
      "name": "BatchMetadataUpdate",
      "type": "event"
    },
    {
      "anonymous": false,
      "inputs": [
        {
          "indexed": false,
          "internalType": "uint256",
          "name": "_tokenId",
          "type": "uint256"
        }
      ],
      "name": "MetadataUpdate",
      "type": "event"
    },
    {
      "anonymous": false,
      "inputs": [
        {
          "indexed": false,
          "internalType": "uint256",
          "name": "newPrice",
          "type": "uint256"
        }
      ],
      "name": "MintPriceUpdated",
      "type": "event"
    },
    {
      "anonymous": false,
      "inputs": [
        {
          "indexed": true,
          "internalType": "address",
          "name": "to",
          "type": "address"
        },
        {
          "indexed": true,
          "internalType": "uint256",
          "name": "tokenId",
          "type": "uint256"
        },
        {
          "indexed": true,
          "internalType": "address",
          "name": "minter",
          "type": "address"
        }
      ],
      "name": "NFTMinted",
      "type": "event"
    },
    {
      "anonymous": false,
      "inputs": [
        {
          "indexed": true,
          "internalType": "address",
          "name": "previousOwner",
          "type": "address"
        },
        {
          "indexed": true,
          "internalType": "address",
          "name": "newOwner",
          "type": "address"
        }
      ],
      "name": "OwnershipTransferred",
      "type": "event"
    },
    {
      "anonymous": false,
      "inputs": [
        {
          "indexed": false,
          "internalType": "bytes32",
          "name": "newSchemaUID",
          "type": "bytes32"
        }
      ],
      "name": "RequiredSchemaUpdated",
      "type": "event"
    },
    {
      "anonymous": false,
      "inputs": [
        {
          "indexed": true,
          "internalType": "address",
          "name": "from",
          "type": "address"
        },
        {
          "indexed": true,
          "internalType": "address",
          "name": "to",
          "type": "address"
        },
        {
          "indexed": true,
          "internalType": "uint256",
          "name": "tokenId",
          "type": "uint256"
        }
      ],
      "name": "Transfer",
      "type": "event"
    },
    {
      "inputs": [
        {
          "internalType": "address",
          "name": "to",
          "type": "address"
        },
        {
          "internalType": "uint256",
          "name": "tokenId",
          "type": "uint256"
        }
      ],
      "name": "approve",
      "outputs": [],
      "stateMutability": "nonpayable",
      "type": "function"
    },
    {
      "inputs": [],
      "name": "attestationGate",
      "outputs": [
        {
          "internalType": "contract AttestationGate",
          "name": "",
          "type": "address"
        }
      ],
      "stateMutability": "view",
      "type": "function"
    },
    {
      "inputs": [
        {
          "internalType": "address",
          "name": "owner",
          "type": "address"
        }
      ],
      "name": "balanceOf",
      "outputs": [
        {
          "internalType": "uint256",
          "name": "",
          "type": "uint256"
        }
      ],
      "stateMutability": "view",
      "type": "function"
    },
    {
      "inputs": [],
      "name": "currentSupply",
      "outputs": [
        {
          "internalType": "uint256",
          "name": "",
          "type": "uint256"
        }
      ],
      "stateMutability": "view",
      "type": "function"
    },
    {
      "inputs": [
        {
          "internalType": "uint256",
          "name": "tokenId",
          "type": "uint256"
        }
      ],
      "name": "getApproved",
      "outputs": [
        {
          "internalType": "address",
          "name": "",
          "type": "address"
        }
      ],
      "stateMutability": "view",
      "type": "function"
    },
    {
      "inputs": [
        {
          "internalType": "address",
          "name": "",
          "type": "address"
        }
      ],
      "name": "hasMinted",
      "outputs": [
        {
          "internalType": "bool",
          "name": "",
          "type": "bool"
        }
      ],
      "stateMutability": "view",
      "type": "function"
    },
    {
      "inputs": [
        {
          "internalType": "address",
          "name": "owner",
          "type": "address"
        },
        {
          "internalType": "address",
          "name": "operator",
          "type": "address"
        }
      ],
      "name": "isApprovedForAll",
      "outputs": [
        {
          "internalType": "bool",
          "name": "",
          "type": "bool"
        }
      ],
      "stateMutability": "view",
      "type": "function"
    },
    {
      "inputs": [],
      "name": "maxSupply",
      "outputs": [
        {
          "internalType": "uint256",
          "name": "",
          "type": "uint256"
        }
      ],
      "stateMutability": "view",
      "type": "function"
    },
    {
      "inputs": [],
      "name": "mint",
      "outputs": [],
      "stateMutability": "payable",
      "type": "function"
    },
    {
      "inputs": [],
      "name": "mintPrice",
      "outputs": [
        {
          "internalType": "uint256",
          "name": "",
          "type": "uint256"
        }
      ],
      "stateMutability": "view",
      "type": "function"
    },
    {
      "inputs": [],
      "name": "name",
      "outputs": [
        {
          "internalType": "string",
          "name": "",
          "type": "string"
        }
      ],
      "stateMutability": "view",
      "type": "function"
    },
    {
      "inputs": [],
      "name": "owner",
      "outputs": [
        {
          "internalType": "address",
          "name": "",
          "type": "address"
        }
      ],
      "stateMutability": "view",
      "type": "function"
    },
    {
      "inputs": [
        {
          "internalType": "uint256",
          "name": "tokenId",
          "type": "uint256"
        }
      ],
      "name": "ownerOf",
      "outputs": [
        {
          "internalType": "address",
          "name": "",
          "type": "address"
        }
      ],
      "stateMutability": "view",
      "type": "function"
    },
    {
      "inputs": [],
      "name": "renounceOwnership",
      "outputs": [],
      "stateMutability": "nonpayable",
      "type": "function"
    },
    {
      "inputs": [],
      "name": "requiredSchemaUID",
      "outputs": [
        {
          "internalType": "bytes32",
          "name": "",
          "type": "bytes32"
        }
      ],
      "stateMutability": "view",
      "type": "function"
    },
    {
      "inputs": [
        {
          "internalType": "address",
          "name": "from",
          "type": "address"
        },
        {
          "internalType": "address",
          "name": "to",
          "type": "address"
        },
        {
          "internalType": "uint256",
          "name": "tokenId",
          "type": "uint256"
        }
      ],
      "name": "safeTransferFrom",
      "outputs": [],
      "stateMutability": "nonpayable",
      "type": "function"
    },
    {
      "inputs": [
        {
          "internalType": "address",
          "name": "from",
          "type": "address"
        },
        {
          "internalType": "address",
          "name": "to",
          "type": "address"
        },
        {
          "internalType": "uint256",
          "name": "tokenId",
          "type": "uint256"
        },
        {
          "internalType": "bytes",
          "name": "data",
          "type": "bytes"
        }
      ],
      "name": "safeTransferFrom",
      "outputs": [],
      "stateMutability": "nonpayable",
      "type": "function"
    },
    {
      "inputs": [
        {
          "internalType": "address",
          "name": "operator",
          "type": "address"
        },
        {
          "internalType": "bool",
          "name": "approved",
          "type": "bool"
        }
      ],
      "name": "setApprovalForAll",
      "outputs": [],
      "stateMutability": "nonpayable",
      "type": "function"
    },
    {
      "inputs": [
        {
          "internalType": "uint256",
          "name": "_newPrice",
          "type": "uint256"
        }
      ],
      "name": "setMintPrice",
      "outputs": [],
      "stateMutability": "nonpayable",
      "type": "function"
    },
    {
      "inputs": [
        {
          "internalType": "bytes32",
          "name": "_newSchemaUID",
          "type": "bytes32"
        }
      ],
      "name": "setRequiredSchema",
      "outputs": [],
      "stateMutability": "nonpayable",
      "type": "function"
    },
    {
      "inputs": [
        {
          "internalType": "uint256",
          "name": "tokenId",
          "type": "uint256"
        },
        {
          "internalType": "string",
          "name": "_tokenURI",
          "type": "string"
        }
      ],
      "name": "setTokenURI",
      "outputs": [],
      "stateMutability": "nonpayable",
      "type": "function"
    },
    {
      "inputs": [
        {
          "internalType": "bytes4",
          "name": "interfaceId",
          "type": "bytes4"
        }
      ],
      "name": "supportsInterface",
      "outputs": [
        {
          "internalType": "bool",
          "name": "",
          "type": "bool"
        }
      ],
      "stateMutability": "view",
      "type": "function"
    },
    {
      "inputs": [],
      "name": "symbol",
      "outputs": [
        {
          "internalType": "string",
          "name": "",
          "type": "string"
        }
      ],
      "stateMutability": "view",
      "type": "function"
    },
    {
      "inputs": [
        {
          "internalType": "uint256",
          "name": "tokenId",
          "type": "uint256"
        }
      ],
      "name": "tokenURI",
      "outputs": [
        {
          "internalType": "string",
          "name": "",
          "type": "string"
        }
      ],
      "stateMutability": "view",
      "type": "function"
    },
    {
      "inputs": [
        {
          "internalType": "address",
          "name": "from",
          "type": "address"
        },
        {
          "internalType": "address",
          "name": "to",
          "type": "address"
        },
        {
          "internalType": "uint256",
          "name": "tokenId",
          "type": "uint256"
        }
      ],
      "name": "transferFrom",
      "outputs": [],
      "stateMutability": "nonpayable",
      "type": "function"
    },
    {
      "inputs": [
        {
          "internalType": "address",
          "name": "newOwner",
          "type": "address"
        }
      ],
      "name": "transferOwnership",
      "outputs": [],
      "stateMutability": "nonpayable",
      "type": "function"
    },
    {
      "inputs": [],
      "name": "withdraw",
      "outputs": [],
      "stateMutability": "nonpayable",
      "type": "function"
    }
  ],
  "bytecode": "0x608060405234801561000f575f5ffd5b5060405161210038038061210083398101604081905261002e916102b8565b3382825f61003c83826103da565b50600161004982826103da565b5050506001600160a01b03811661007a57604051631e4fbdf760e01b81525f60048201526024015b60405180910390fd5b610083816101ca565b5060016008556001600160a01b0386166100eb5760405162461bcd60e51b8152602060048201526024808201527f47617465644e46544d696e7465723a20696e76616c69642067617465206164646044820152637265737360e01b6064820152608401610071565b5f84116101455760405162461bcd60e51b815260206004820152602260248201527f47617465644e46544d696e7465723a20696e76616c6964206d617820737570706044820152616c7960f01b6064820152608401610071565b846101925760405162461bcd60e51b815260206004820152601e60248201527f47617465644e46544d696e7465723a20696e76616c696420736368656d6100006044820152606401610071565b5050600980546001600160a01b0319166001600160a01b039590951694909417909355600a91909155600b55600d555f600c55610494565b600780546001600160a01b038381166001600160a01b0319831681179093556040519116919082907f8be0079c531659141344cd1fd0a4f28419497f9722a3daafe3b4186f6b6457e0905f90a35050565b634e487b7160e01b5f52604160045260245ffd5b5f82601f83011261023e575f5ffd5b81516001600160401b038111156102575761025761021b565b604051601f8201601f19908116603f011681016001600160401b03811182821017156102855761028561021b565b60405281815283820160200185101561029c575f5ffd5b8160208501602083015e5f918101602001919091529392505050565b5f5f5f5f5f5f60c087890312156102cd575f5ffd5b86516001600160a01b03811681146102e3575f5ffd5b6020880151604089015160608a015160808b0151939950919750955093506001600160401b03811115610314575f5ffd5b61032089828a0161022f565b60a089015190935090506001600160401b0381111561033d575f5ffd5b61034989828a0161022f565b9150509295509295509295565b600181811c9082168061036a57607f821691505b60208210810361038857634e487b7160e01b5f52602260045260245ffd5b50919050565b601f8211156103d557805f5260205f20601f840160051c810160208510156103b35750805b601f840160051c820191505b818110156103d2575f81556001016103bf565b50505b505050565b81516001600160401b038111156103f3576103f361021b565b610407816104018454610356565b8461038e565b6020601f821160018114610439575f83156104225750848201515b5f19600385901b1c1916600184901b1784556103d2565b5f84815260208120601f198516915b828110156104685787850151825560209485019460019092019101610448565b508482101561048557868401515f19600387901b60f8161c191681555b50505050600190811b01905550565b611c5f806104a15f395ff3fe608060405260043610610195575f3560e01c80636fb4f652116100e7578063b88d4fde11610087578063e985e9c511610062578063e985e9c514610458578063eee9712f14610477578063f2fde38b1461048c578063f4a0a528146104ab575f5ffd5b8063b88d4fde14610405578063c87b56dd14610424578063d5abeb0114610443575f5ffd5b8063771282f6116100c2578063771282f6146103a05780638da5cb5b146103b557806395d89b41146103d2578063a22cb465146103e6575f5ffd5b80636fb4f6521461034e57806370a082311461036d578063715018a61461038c575f5ffd5b806323b872dd1161015257806342842e0e1161012d57806342842e0e146102ce5780636352211e146102ed578063641c94fd1461030c5780636817c76c1461032b575f5ffd5b806323b872dd1461026d57806338e21cce1461028c5780633ccfd60b146102ba575f5ffd5b806301ffc9a71461019957806306fdde03146101cd578063081812fc146101ee578063095ea7b3146102255780631249c58b14610246578063162094c41461024e575b5f5ffd5b3480156101a4575f5ffd5b506101b86101b336600461172f565b6104ca565b60405190151581526020015b60405180910390f35b3480156101d8575f5ffd5b506101e16104da565b6040516101c49190611778565b3480156101f9575f5ffd5b5061020d61020836600461178a565b610569565b6040516001600160a01b0390911681526020016101c4565b348015610230575f5ffd5b5061024461023f3660046117bc565b610590565b005b61024461059f565b348015610259575f5ffd5b5061024461026836600461186f565b6108c7565b348015610278575f5ffd5b506102446102873660046118c6565b610942565b348015610297575f5ffd5b506101b86102a6366004611900565b600e6020525f908152604090205460ff1681565b3480156102c5575f5ffd5b506102446109cb565b3480156102d9575f5ffd5b506102446102e83660046118c6565b610ae0565b3480156102f8575f5ffd5b5061020d61030736600461178a565b610aff565b348015610317575f5ffd5b5060095461020d906001600160a01b031681565b348015610336575f5ffd5b50610340600d5481565b6040519081526020016101c4565b348015610359575f5ffd5b5061024461036836600461178a565b610b09565b348015610378575f5ffd5b50610340610387366004611900565b610beb565b348015610397575f5ffd5b50610244610c30565b3480156103ab575f5ffd5b50610340600c5481565b3480156103c0575f5ffd5b506007546001600160a01b031661020d565b3480156103dd575f5ffd5b506101e1610c41565b3480156103f1575f5ffd5b50610244610400366004611926565b610c50565b348015610410575f5ffd5b5061024461041f36600461195b565b610c5b565b34801561042f575f5ffd5b506101e161043e36600461178a565b610c73565b34801561044e575f5ffd5b50610340600b5481565b348015610463575f5ffd5b506101b86104723660046119d2565b610c7e565b348015610482575f5ffd5b50610340600a5481565b348015610497575f5ffd5b506102446104a6366004611900565b610cab565b3480156104b6575f5ffd5b506102446104c536600461178a565b610ce8565b5f6104d482610d76565b92915050565b60605f80546104e890611a03565b80601f016020809104026020016040519081016040528092919081815260200182805461051490611a03565b801561055f5780601f106105365761010080835404028352916020019161055f565b820191905f5260205f20905b81548152906001019060200180831161054257829003601f168201915b5050505050905090565b5f61057382610d9a565b505f828152600460205260409020546001600160a01b03166104d4565b61059b828233610dd2565b5050565b6105a7610ddf565b600b54600c541061060a5760405162461bcd60e51b815260206004820152602260248201527f47617465644e46544d696e7465723a206d617820737570706c79207265616368604482015261195960f21b60648201526084015b60405180910390fd5b600d543410156106685760405162461bcd60e51b8152602060048201526024808201527f47617465644e46544d696e7465723a20696e73756666696369656e74207061796044820152631b595b9d60e21b6064820152608401610601565b335f908152600e602052604090205460ff16156106c75760405162461bcd60e51b815260206004820152601e60248201527f47617465644e46544d696e7465723a20616c7265616479206d696e74656400006044820152606401610601565b600954600a5460405163163d4ad560e01b815233600482015260248101919091526001600160a01b039091169063163d4ad590604401602060405180830381865afa158015610718573d5f5f3e3d5ffd5b505050506040513d601f19601f8201168201806040525081019061073c9190611a3b565b61079b5760405162461bcd60e51b815260206004820152602a60248201527f47617465644e46544d696e7465723a2076616c6964206174746573746174696f6044820152691b881c995c5d5a5c995960b21b6064820152608401610601565b5f600c5460016107ab9190611a6a565b90506107b73382610e09565b600c8054905f6107c683611a7d565b9091555050335f818152600e6020526040808220805460ff1916600117905551839183917f89a2c92e65780856b461f06435fffd0fb445240ba3cfee7e8f18e01dca40c0739190a4600d543411156108ba57600d545f9033906108299034611a95565b6040515f81818185875af1925050503d805f8114610862576040519150601f19603f3d011682016040523d82523d5f602084013e610867565b606091505b50509050806108b85760405162461bcd60e51b815260206004820152601d60248201527f47617465644e46544d696e7465723a20726566756e64206661696c65640000006044820152606401610601565b505b506108c56001600855565b565b6108cf610e22565b5f821180156108e05750600c548211155b6109385760405162461bcd60e51b8152602060048201526024808201527f47617465644e46544d696e7465723a20746f6b656e20646f6573206e6f7420656044820152631e1a5cdd60e21b6064820152608401610601565b61059b8282610e4f565b6001600160a01b03821661096b57604051633250574960e11b81525f6004820152602401610601565b5f610977838333610e9e565b9050836001600160a01b0316816001600160a01b0316146109c5576040516364283d7b60e01b81526001600160a01b0380861660048301526024820184905282166044820152606401610601565b50505050565b6109d3610e22565b4780610a305760405162461bcd60e51b815260206004820152602660248201527f47617465644e46544d696e7465723a206e6f2062616c616e636520746f20776960448201526574686472617760d01b6064820152608401610601565b5f610a436007546001600160a01b031690565b6001600160a01b0316826040515f6040518083038185875af1925050503d805f8114610a8a576040519150601f19603f3d011682016040523d82523d5f602084013e610a8f565b606091505b505090508061059b5760405162461bcd60e51b815260206004820152601f60248201527f47617465644e46544d696e7465723a207769746864726177206661696c6564006044820152606401610601565b610afa83838360405180602001604052805f815250610c5b565b505050565b5f6104d482610d9a565b610b11610e22565b600a548103610b625760405162461bcd60e51b815260206004820152601b60248201527f47617465644e46544d696e7465723a2073616d6520736368656d6100000000006044820152606401610601565b80610baf5760405162461bcd60e51b815260206004820152601e60248201527f47617465644e46544d696e7465723a20696e76616c696420736368656d6100006044820152606401610601565b600a8190556040518181527fe67cfdd4c731a4fe3e799a19bb9c166e8db7858a31b9429f7c576d9dc477ee64906020015b60405180910390a150565b5f6001600160a01b038216610c15576040516322718ad960e21b81525f6004820152602401610601565b506001600160a01b03165f9081526003602052604090205490565b610c38610e22565b6108c55f610f90565b6060600180546104e890611a03565b61059b338383610fe1565b610c66848484610942565b6109c5338585858561107f565b60606104d4826111a7565b6001600160a01b039182165f90815260056020908152604080832093909416825291909152205460ff1690565b610cb3610e22565b6001600160a01b038116610cdc57604051631e4fbdf760e01b81525f6004820152602401610601565b610ce581610f90565b50565b610cf0610e22565b600d548103610d415760405162461bcd60e51b815260206004820152601a60248201527f47617465644e46544d696e7465723a2073616d652070726963650000000000006044820152606401610601565b600d8190556040518181527f525b762709cc2a983aec5ccdfd807a061f993c91090b5bcd7da92ca254976aaa90602001610be0565b5f6001600160e01b03198216632483248360e11b14806104d457506104d4826112b2565b5f818152600260205260408120546001600160a01b0316806104d457604051637e27328960e01b815260048101849052602401610601565b610afa8383836001611301565b600260085403610e0257604051633ee5aeb560e01b815260040160405180910390fd5b6002600855565b61059b828260405180602001604052805f815250611405565b6007546001600160a01b031633146108c55760405163118cdaa760e01b8152336004820152602401610601565b5f828152600660205260409020610e668282611aec565b506040518281527ff8e1a15aba9398e019f0b49df1a4fde98ee17ae345cb5f6b5e2c27f5033e8ce79060200160405180910390a15050565b5f828152600260205260408120546001600160a01b0390811690831615610eca57610eca81848661141c565b6001600160a01b03811615610f0457610ee55f855f5f611301565b6001600160a01b0381165f90815260036020526040902080545f190190555b6001600160a01b03851615610f32576001600160a01b0385165f908152600360205260409020805460010190555b5f8481526002602052604080822080546001600160a01b0319166001600160a01b0389811691821790925591518793918516917fddf252ad1be2c89b69c2b068fc378daa952ba7f163c4a11628f55a4df523b3ef91a4949350505050565b600780546001600160a01b038381166001600160a01b0319831681179093556040519116919082907f8be0079c531659141344cd1fd0a4f28419497f9722a3daafe3b4186f6b6457e0905f90a35050565b6001600160a01b03821661101357604051630b61174360e31b81526001600160a01b0383166004820152602401610601565b6001600160a01b038381165f81815260056020908152604080832094871680845294825291829020805460ff191686151590811790915591519182527f17307eab39ab6107e8899845ad3d59bd9653f200f220920489ca2b5937696c31910160405180910390a3505050565b6001600160a01b0383163b156111a057604051630a85bd0160e11b81526001600160a01b0384169063150b7a02906110c1908890889087908790600401611ba7565b6020604051808303815f875af19250505080156110fb575060408051601f3d908101601f191682019092526110f891810190611be3565b60015b611162573d808015611128576040519150601f19603f3d011682016040523d82523d5f602084013e61112d565b606091505b5080515f0361115a57604051633250574960e11b81526001600160a01b0385166004820152602401610601565b805160208201fd5b6001600160e01b03198116630a85bd0160e11b1461119e57604051633250574960e11b81526001600160a01b0385166004820152602401610601565b505b5050505050565b60606111b282610d9a565b505f82815260066020526040812080546111cb90611a03565b80601f01602080910402602001604051908101604052809291908181526020018280546111f790611a03565b80156112425780601f1061121957610100808354040283529160200191611242565b820191905f5260205f20905b81548152906001019060200180831161122557829003601f168201915b505050505090505f61125e60408051602081019091525f815290565b905080515f0361126f575092915050565b8151156112a1578082604051602001611289929190611c15565b60405160208183030381529060405292505050919050565b6112aa84611480565b949350505050565b5f6001600160e01b031982166380ac58cd60e01b14806112e257506001600160e01b03198216635b5e139f60e01b145b806104d457506301ffc9a760e01b6001600160e01b03198316146104d4565b808061131557506001600160a01b03821615155b156113d6575f61132484610d9a565b90506001600160a01b038316158015906113505750826001600160a01b0316816001600160a01b031614155b801561136357506113618184610c7e565b155b1561138c5760405163a9fbf51f60e01b81526001600160a01b0384166004820152602401610601565b81156113d45783856001600160a01b0316826001600160a01b03167f8c5be1e5ebec7d5bd14f71427d1e84f3dd0314c0f7b2291e5b200ac8c7c3b92560405160405180910390a45b505b50505f90815260046020526040902080546001600160a01b0319166001600160a01b0392909216919091179055565b61140f83836114f1565b610afa335f85858561107f565b611427838383611552565b610afa576001600160a01b03831661145557604051637e27328960e01b815260048101829052602401610601565b60405163177e802f60e01b81526001600160a01b038316600482015260248101829052604401610601565b606061148b82610d9a565b505f6114a160408051602081019091525f815290565b90505f8151116114bf5760405180602001604052805f8152506114ea565b806114c9846115b3565b6040516020016114da929190611c15565b6040516020818303038152906040525b9392505050565b6001600160a01b03821661151a57604051633250574960e11b81525f6004820152602401610601565b5f61152683835f610e9e565b90506001600160a01b03811615610afa576040516339e3563760e11b81525f6004820152602401610601565b5f6001600160a01b038316158015906112aa5750826001600160a01b0316846001600160a01b0316148061158b575061158b8484610c7e565b806112aa5750505f908152600460205260409020546001600160a01b03908116911614919050565b60605f6115bf83611643565b60010190505f8167ffffffffffffffff8111156115de576115de6117e4565b6040519080825280601f01601f191660200182016040528015611608576020820181803683370190505b5090508181016020015b5f19016f181899199a1a9b1b9c1cb0b131b232b360811b600a86061a8153600a850494508461161257509392505050565b5f8072184f03e93ff9f4daa797ed6e38ed64bf6a1f0160401b83106116815772184f03e93ff9f4daa797ed6e38ed64bf6a1f0160401b830492506040015b6d04ee2d6d415b85acef810000000083106116ad576d04ee2d6d415b85acef8100000000830492506020015b662386f26fc1000083106116cb57662386f26fc10000830492506010015b6305f5e10083106116e3576305f5e100830492506008015b61271083106116f757612710830492506004015b60648310611709576064830492506002015b600a83106104d45760010192915050565b6001600160e01b031981168114610ce5575f5ffd5b5f6020828403121561173f575f5ffd5b81356114ea8161171a565b5f81518084528060208401602086015e5f602082860101526020601f19601f83011685010191505092915050565b602081525f6114ea602083018461174a565b5f6020828403121561179a575f5ffd5b5035919050565b80356001600160a01b03811681146117b7575f5ffd5b919050565b5f5f604083850312156117cd575f5ffd5b6117d6836117a1565b946020939093013593505050565b634e487b7160e01b5f52604160045260245ffd5b5f5f67ffffffffffffffff841115611812576118126117e4565b50604051601f19601f85018116603f0116810181811067ffffffffffffffff82111715611841576118416117e4565b604052838152905080828401851015611858575f5ffd5b838360208301375f60208583010152509392505050565b5f5f60408385031215611880575f5ffd5b82359150602083013567ffffffffffffffff81111561189d575f5ffd5b8301601f810185136118ad575f5ffd5b6118bc858235602084016117f8565b9150509250929050565b5f5f5f606084860312156118d8575f5ffd5b6118e1846117a1565b92506118ef602085016117a1565b929592945050506040919091013590565b5f60208284031215611910575f5ffd5b6114ea826117a1565b8015158114610ce5575f5ffd5b5f5f60408385031215611937575f5ffd5b611940836117a1565b9150602083013561195081611919565b809150509250929050565b5f5f5f5f6080858703121561196e575f5ffd5b611977856117a1565b9350611985602086016117a1565b925060408501359150606085013567ffffffffffffffff8111156119a7575f5ffd5b8501601f810187136119b7575f5ffd5b6119c6878235602084016117f8565b91505092959194509250565b5f5f604083850312156119e3575f5ffd5b6119ec836117a1565b91506119fa602084016117a1565b90509250929050565b600181811c90821680611a1757607f821691505b602082108103611a3557634e487b7160e01b5f52602260045260245ffd5b50919050565b5f60208284031215611a4b575f5ffd5b81516114ea81611919565b634e487b7160e01b5f52601160045260245ffd5b808201808211156104d4576104d4611a56565b5f60018201611a8e57611a8e611a56565b5060010190565b818103818111156104d4576104d4611a56565b601f821115610afa57805f5260205f20601f840160051c81016020851015611acd5750805b601f840160051c820191505b818110156111a0575f8155600101611ad9565b815167ffffffffffffffff811115611b0657611b066117e4565b611b1a81611b148454611a03565b84611aa8565b6020601f821160018114611b4c575f8315611b355750848201515b5f19600385901b1c1916600184901b1784556111a0565b5f84815260208120601f198516915b82811015611b7b5787850151825560209485019460019092019101611b5b565b5084821015611b9857868401515f19600387901b60f8161c191681555b50505050600190811b01905550565b6001600160a01b03858116825284166020820152604081018390526080606082018190525f90611bd99083018461174a565b9695505050505050565b5f60208284031215611bf3575f5ffd5b81516114ea8161171a565b5f81518060208401855e5f93019283525090919050565b5f6112aa611c238386611bfe565b84611bfe56fea26469706673582212204a95d00d6fce183e37c4e55267645543ee167bcf86d78e01751859707a2d414d64736f6c634300081c0033",
  "linkReferences": {},
  "deployedLinkReferences": {},
  "immutableReferences": {},
  "inputSourceName": "project/contracts/gates/GatedNFTMinter.sol",
  "buildInfoId": "solc-0_8_28-347ed06253473aab3790c656693c82d57af65c3d"
}